:060000000209A70208003E
:03001B0002092DAA
:10080000C0E0C0D075D000C005C006C007C28EAF22
:10081000A0AD07ED640C7003020920ED64E7600FE2
:10082000ED64D7600AED64B76005ED6477702EC2A1
:100830008012099AC2A8C2998D993099FDC299D2A5
:10084000A8D280C28012099AC2A8C2998D99309903
:10085000FDC299D2A8D28012099A12099AED64EBCE
:10086000600FED64DB600AED64BB6005ED647B70D6
:1008700028C28012099AC2A8C2998D993099FDC2E6
:1008800099D2A8D28012099AC28012099AC2A8C22B
:10089000998D993099FD12098BED64ED600FED642F
:1008A000DD600AED64BD6005ED647D7045C28012B7
:1008B000099AC2A8C2998D993099FDC299D2A8D23D
:1008C0008012099AC28012099AC2A8C2998D9930E1
:1008D00099FDC299D2A8D28012099AC28012099AAF
:1008E000C2A8C2998D993099FD12098B12099A12EA
:1008F000099AC28012099AC2A8C2998D993099FDAD
:10090000C299D2A8D28012099AC28012099AC2A8AA
:10091000C2998D993099FDC299D2A8D28012099AB4
:10092000D28ED007D006D005D0D0D0E032C0E0C003
:1009300083C082C0D075D000C007AF08EF9009C255
:1009400093F5A030B20EE508C39403500405088067
:1009500003750800D007D0D0D082D083D0E03275A4
:100960008922E4F58DF58B758810D2ABD2A8D28898
:10097000759840D2CC75C81075CDFF75CBFF75CC7E
:10098000EE75CAEED2CAD28ED2AF22C299D2A8D206
:100990008012099A12099A12099AE4FFE4FE0EBE27
:1009A00064FC0FBF64F622787FE4F6D8FD758108F9
:1009B0000209B31209BB12095F80FEE4F50885083D
:0609C000A022EFDFBF7F63
:00000001FF
