:030000000208A94A
:10080000E4FCD208EC9008B593F5A085A020A202E4
:10081000820382014067300860E520B4E7031208D4
:100820008DE520B4EB0312088DE520B4ED0312082A
:100830008DE520B4D70312088DE520B4DB03120840
:100840008DE520B4DD0312088DE520B4B70312084E
:100850008DE520B4BB0312088DE520B4BD0312085A
:100860008DE520B4770312088DE520B47D031208CE
:100870008DE520B47B0312088DC2088087ECC394F9
:100880000350030C8002E4FCD2080208047D01C27C
:100890008012089CD28012089CDDF422E4FFE4FE62
:1008A0000EBE64FC0FBFC8F622787FE4F6D8FD7553
:0908B0008121020800EFDFBF7F87
:00000001FF
