:060000000208B302080033
:10080000C0D075D000C006C007C2A8AEA0BEE70524
:100810007F311208BFBEEB057F321208BFBEED0567
:100820007F331208BFBED7057F341208BFBEDB0579
:100830007F351208BFBEDD057F361208BFBEB70583
:100840007F371208BFBEBB057F381208BFBEBD058B
:100850007F391208BFBE77057F2A1208BFBE7B050D
:100860007F301208BFBE7D057F231208BF30B2FD66
:10087000C289D2A8D007D006D0D032E4F508759846
:100880004075CCEE75CAEE75CDFF75CBFFD2CCD2DC
:10089000CAD288D2A8D2AF2212087BE5089008C934
:1008A00093F5A0E508C394035004050880EDE4F532
:1008B0000880E8787FE4F6D8FD758108020898C2C0
:0D08C000998F993099FDC29922EFDFBF7F1B
:00000001FF
