:030000000208B93A
:10080000E4F508D208E5089008DD93F5A085A0205E
:10081000A20582048206820740533008E8E52012D0
:10082000087F085F7708647B08667D0859B7085B16
:10083000BB085DBD0853D70855DB0857DD084AE7FC
:10084000084CEB0851ED0000086980131208D580B0
:1008500018800C800A800F800680048002800712B6
:1008600008C5800580001208CDC2088098E508C33D
:100870009403500405088003E4F508D2088086D06C
:1008800083D082F8E4937012740193700DA3A39344
:10089000F8740193F5828883E4737402936860EFBF
:1008A000A3A3A380DFC2801208ACD280E4FFE4FEE1
:1008B0000EBE64FC0FBF64F622787FE4F6D8FD75A7
:1008C00081210208007D011208A5DDFB227D0212B4
:1008D00008A5DDFB227D0C1208A5DDFB22FDFBF740
:0108E000FD1A
:00000001FF
