:03000000020800F3
:03002B0002088C3C
:10080000787FE4F6D8FD7581210208470208E9E403
:1008100093A3F8E493A34003F68001F208DFF48089
:1008200029E493A3F85407240CC8C333C4540F44D9
:1008300020C8834004F456800146F6DFE4800B01B3
:1008400002040810204080900974E47E019360BC8B
:10085000A3FF543F30E509541FFEE493A360010E4B
:10086000CF54C025E060A840B8E493A3FAE493A372
:10087000F8E493A3C8C582C8CAC583CAF0A3C8C593
:1008800082C8CAC583CADFE9DEE780BEC0E0C0D047
:1008900075D000C006C007C2CFC2CEE50AD3950B03
:1008A0007F0050027F01E5097E0070027E01EF5E4D
:1008B000600643A018750901E50AD3950B7F004037
:1008C000027F01E5097E00B401027E01EF5E600651
:1008D00053A0E7750900E50AB4FF03750A00050A8D
:1008E000D007D006D0D0D0E032120939A2B592009C
:1008F000A2B49201A2B392082008F130B3FDE52022
:100900007008750830AF0812095BE520B40108755E
:100910000831AF0812095BE520B40208750832AF50
:100920000812095BE520B40308750833AF08120903
:100930005B53A0BD43A02480B3E4F5A0750830D27A
:10094000ADF5C875CDFF75CCFF75CAF075CBFFD27C
:10095000CAF508AF0812095BD2AF22BF3003E4F535
:100960000BBF3103750B55BF3203750BAABF3303A1
:10097000750BFF22010A00010B00012000C1880055
:00000001FF
