:03000000020800F3
:03000B0002088C5C
:10080000787FE4F6D8FD75810A020847020913E4EF
:1008100093A3F8E493A34003F68001F208DFF48089
:1008200029E493A3F85407240CC8C333C4540F44D9
:1008300020C8834004F456800146F6DFE4800B01B3
:100840000204081020408090091BE47E019360BCE4
:10085000A3FF543F30E509541FFEE493A360010E4B
:10086000CF54C025E060A840B8E493A3FAE493A372
:10087000F8E493A3C8C582C8CAC583CAF0A3C8C593
:1008800082C8CAC583CADFE9DEE780BEC0E0C0F027
:10089000C0D075D000C000C004C005C006C007C2EB
:1008A0008C30A019C2A0C374FF950AFFE49400FE27
:1008B0007C007D361209018E088F09800DD2A0E5DB
:1008C0000A75F036A485F008F509E508FFC374FF42
:1008D0009FF58CC374FF9509F58AC28DD28CD00721
:1008E000D006D005D004D000D0D0D0F0D0E0325324
:1008F00089F0438901E4F58CF58AD2A9D2AFD28C74
:1009000022EF8DF0A4A8F0CF8CF0A428CE8DF0A417
:100910002EFE22120923750A7580FE010A000208C4
:09092000000000E4F50A0208EFF2
:00000001FF
