:0300000002087E75
:1008000020B22C75A0FE12085B75A0FB1208617562
:10081000A0F712086175A0EF12086175A0DF120839
:100820006175A0BF12086175A07F12086180D17543
:10083000A07F12086175A0BF12086175A0DF1208C1
:100840006175A0EF12086175A0F712086175A0FB31
:1008500012085B75A0FE12086180A512086175A0E0
:10086000FDE4FFFEE4FDFC0DBD00010CED64644CF5
:1008700070F50FBF00010EEF64644E70E722787FC1
:0A088000E4F6D8FD758107020800B8
:00000001FF
