:030000000208FDF6
:10080000E4F508D208E50890092993F5A085A02011
:10081000A20582048206820750030208A43008E57C
:10082000E5201208B7088C7708917B08967D087739
:10083000B7087CBB0881BD0862D70867DB086CDDA0
:10084000084DE70852EB0857ED0000089F12090910
:10085000800812091180031209191208F1120909FE
:10086000803D12090980081209118003120919122A
:1008700008F1120911802812090980081209118053
:10088000031209191208F1120919801312090980BB
:100890000812091180031209191208F1120921C264
:1008A00008020805E508C39403500405088003E422
:1008B000F508D208020805D083D082F8E4937012BC
:1008C000740193700DA3A393F8740193F582888348
:1008D000E4737402936860EFA3A3A380DFC2801265
:1008E00008E4D280E4FFE4FE0EBE64FC0FBF64F6B1
:1008F000221208E41208E41208E40208E4787FE413
:10090000F6D8FD7581210208007D011208DDDDFBAE
:10091000227D021208DDDDFB227D031208DDDDFBF6
:0D092000227D041208DDDDFB22FDFBF7FD4A
:00000001FF
